:100000000C94DD020C9405030C9405030C94050379
:100010000C9405030C9405030C9405030C94050340
:100020000C9405030C9405030C9405030C94050330
:100030000C9405030C9405030C9405030C94050320
:100040000C942B0D0C9405030C9452120C942C124E
:100050000C9405030C9405030C9405030C94050300
:100060000C94750D0C94050300000000003E5B4FDE
:100070005B3E3E6B4F6B3E1C3E7C3E1C183C7E3C08
:10008000181C577D571C1C5E7F5E1C00183C180016
:10009000FFE7C3E7FF0018241800FFE7DBE7FF30A6
:1000A000483A060E2629792926407F050507407F14
:1000B00005253F5A3CE73C5A7F3E1C1C08081C1C87
:1000C0003E7F14227F22145F5F005F5F06097F017D
:1000D0007F006689956A606060606094A2FFA29468
:1000E00008047E040810207E201008082A1C080836
:1000F0001C2A08081E101010100C1E0C1E0C303884
:100100003E3830060E3E0E06000000000000005F84
:1001100000000007000700147F147F14242A7F2AA0
:100120001223130864623649562050000807030062
:10013000001C2241000041221C002A1C7F1C2A08AE
:10014000083E080800807030000808080808000011
:1001500060600020100804023E5149453E00427F85
:10016000400072494949462141494D331814127FD4
:100170001027454545393C4A494931412111090774
:100180003649494936464949291E000014000000F5
:1001900040340000000814224114141414140041C7
:1001A00022140802015909063E415D594E7C121184
:1001B000127C7F494949363E414141227F414141BC
:1001C0003E7F494949417F090909013E4141517337
:1001D0007F0808087F00417F41002040413F017FA8
:1001E000081422417F404040407F021C027F7F0470
:1001F00008107F3E4141413E7F090909063E4151B9
:10020000215E7F09192946264949493203017F01A8
:10021000033F4040403F1F2040201F3F4038403FA9
:10022000631408146303047804036159494D4300BF
:100230007F4141410204081020004141417F0402F6
:10024000010204404040404000030708002054548D
:1002500078407F284444383844444428384444286B
:100260007F385454541800087E090218A4A49C78BE
:100270007F0804047800447D40002040403D007F1A
:100280001028440000417F40007C047804787C08FA
:100290000404783844444438FC18242418182424CE
:1002A00018FC7C08040408485454542404043F44B3
:1002B000243C4040207C1C2040201C3C4030403CE2
:1002C00044281028444C9090907C4464544C440042
:1002D00008364100000077000000413608000201A6
:1002E0000204023C2623263C1EA1A161123A404092
:1002F000207A38545455592155557941225454780F
:1003000042215554784020545579400C1E527212A7
:100310003955555559395454545939555454580030
:1003200000457C410002457D420001457C407D1234
:1003300011127DF0282528F07C5455450020545496
:100340007C547C0A097F4932494949323A44444441
:100350003A324A4848303A4141217A3A424020787C
:10036000009DA0A07D3D4242423D3D4040403D3C7D
:1003700024FF2424487E4943662B2FFC2F2BFF09A2
:1003800029F620C0887E0903205454794100004496
:100390007D413048484A32384040227A007A0A0A81
:1003A000727D0D19317D2629292F282629292926F4
:1003B00030484D4020380808080808080808382F39
:1003C00010C8ACBA2F102834FA00007B00000814C3
:1003D0002A142222142A14085500550055AA55AA99
:1003E00055AAFF55FF55FF000000FF00101010FF39
:1003F00000141414FF001010FF00FF1010F010F094
:10040000141414FC001414F700FF0000FF00FF1484
:1004100014F404FC141417101F10101F101F1414D0
:10042000141F00101010F0000000001F101010101A
:100430001F10101010F010000000FF10101010100E
:1004400010101010FF10000000FF140000FF00FF4C
:1004500000001F10170000FC04F4141417101714E8
:1004600014F404F40000FF00F7141414141414140A
:10047000F700F7141414171410101F101F1414147D
:10048000F4141010F010F000001F101F0000001FE7
:1004900014000000FC140000F010F01010FF10FF1A
:1004A000141414FF141010101F00000000F010FFAF
:1004B000FFFFFFFFF0F0F0F0F0FFFFFF0000000093
:1004C00000FFFF0F0F0F0F0F3844443844FC4A4A17
:1004D0004A347E02020606027E027E0263554941CC
:1004E000633844443C04407E201E2006027E020203
:1004F00099A5E7A5991C2A492A1C4C7201724C3017
:100500004A4D4D303048784830BC625A463D3E49ED
:100510004949007E0101017E2A2A2A2A2A44445F91
:10052000444440514A444040444A51400000FF0185
:1005300003E080FF000008086B6B08361236243693
:10054000060F090F060000181800000010100030F8
:1005500040FF0101001F01011E00191D1712003C80
:100560003C3C3C00000000000000000800020100CC
:10057000000304070000000000000000000000006D
:10058000240027002A0001020408102040800102F4
:1005900004081020010204081020000000002500BB
:1005A00028002B00040404040404040402020202D0
:1005B0000202030303030303F51811241FBECFEF48
:1005C000D8E0DEBFCDBF15E0A0E0B1E0E8E9F7E399
:1005D00002C005900D92A23DB107D9F727E0A2ED28
:1005E000B5E001C01D92A937B207E1F712E0CDEDE9
:1005F000D2E004C02197FE010E94BF1BCC3DD10771
:10060000C9F70E9416160C94CA1B0C9400003FB741
:10061000F8948091460690914706A0914806B091C3
:10062000490626B5A89B05C02F3F19F00196A11DCC
:10063000B11D3FBFBA2FA92F982F8827820F911D78
:10064000A11DB11DBC01CD0142E0660F771F881FBF
:10065000991F4A95D1F708950F931F93CF93DF9376
:10066000DC0155968C915597823071F0833009F1F9
:10067000813009F08CC01496ED91FC911597E41B24
:10068000F50BE21BF30B20C01496ED91FC9115972E
:10069000CF01861B970BBC01615071091696ED9135
:1006A000FC911797CF01841B950BAC01421B530B98
:1006B0006EC01696ED91FC911797CF01861B970B94
:1006C000BC0161507109FA0177FD1BC116968D912D
:1006D0009C911797681779070CF013C1F7FF04C0B6
:1006E0002E0F3F1FE0E0F0E014968D919C9115973E
:1006F000AF01420F531F841795071CF49C012E1B5A
:100700003F0B121613060CF0FCC0CB0177FD0796C9
:1007100043E0959587954A95E1F79695982F882718
:1007200097958795E80FF91FE050FF4F677077277F
:1007300081E090E001C0880F6A95EAF7482F013008
:10074000110541F088F00230110509F0DAC02E0FD2
:100750003F1F15C02E0F3F1FE217F30709F4D1C04A
:100760008081842B8193F8CF80952E0F3F1FE21755
:10077000F30709F4C6C0908198239193F8CFE2174C
:10078000F30709F4BEC0808184278193F8CF77FDF9
:10079000B8C014968D919C911597681779070CF045
:1007A000B0C057FF04C0240F351F40E050E016963C
:1007B0008D919C911797FA01E20FF31F8E179F07F7
:1007C0001CF49C01241B350B121613060CF099C067
:1007D000A22F842F86958695869590E8899F600D37
:1007E000711D1124FB01E050FF4F4770A9F198E003
:1007F000941B492F50E0EA01C859DA4F8881291724
:1008000090F4421B51092FEF30E002C03595279537
:100810004A95E2F782230130110541F068F0023079
:10082000110589F06EC00130110519F42081822B69
:100830000CC00130110520F480952081822305C071
:100840000230110531F4208182278083A91708F432
:1008500058C0A91BE058FF4FA83048F102301105DD
:1008600059F4EF018A2F988190959883C058DF4FF3
:1008700088508830C0F730C081E00130110509F0A0
:1008800080E08195EF019A2F8883C058DF4F985000
:100890009830D0F788EF8A0F86958695869590E8F0
:1008A000899FE00DF11D1124E058FF4FA770AA2386
:1008B00041F1B0E0A05ABA4F8C910130110529F0F6
:1008C00038F002301105D1F01CC09081892B18C07E
:1008D00080959081892314C088EF8A0F869586952C
:1008E000869590E8899FE00DF11D1124E058FF4F97
:1008F000A77039F0B0E0A05ABA4F8C919081892747
:100900008083DF91CF911F910F9108950F931F93D3
:10091000CF93DF93DC01FB0155968C915597823084
:1009200081F0833019F1813051F514968D919C91AD
:100930001597BC01641B750BAB0141505109BF01F8
:1009400081C014966D917C911597CB018E1B9F0BE6
:10095000FC0116968D919C911797BC01641B750B39
:10096000AB0141505109E21BF30B09C016966D9182
:100970007C9117976E1B7F0B621B730B63C057FD37
:100980001CC116968D919C911797481759070CF02A
:1009900014C1F7FF04C02E0F3F1FE0E0F0E01496F3
:1009A0008D919C911597BF01620F731F8617970752
:1009B0001CF49C012E1B3F0B121613060CF0FDC0FD
:1009C000CA0157FD079663E0959587956A95E1F70B
:1009D0009695982F882797958795E80FF91FE050EF
:1009E000FF4F4770552781E090E001C0880F4A957E
:1009F000EAF7482F0130110541F088F00230110567
:100A000009F0DBC02E0F3F1F15C02E0F3F1FE2174E
:100A1000F30709F4D2C08081842B8193F8CF8095AD
:100A20002E0F3F1FE217F30709F4C7C090819823E8
:100A30009193F8CFE217F30709F4BFC080818427B0
:100A40008193F8CF57FDB9C014968D919C9115975D
:100A5000481759070CF0B1C077FF04C0260F371FA5
:100A600060E070E016968D919C911797FB01E20F64
:100A7000F31F8E179F071CF49C01261B370B1216C1
:100A800013060CF09AC0A22F862F86958695869520
:100A900090E8899F400D511D1124FA01E050FF4F4D
:100AA0006770A9F198E0961B492F50E0EA01C859F8
:100AB000DA4F8881291790F4421B51092FEF30E05B
:100AC00002C0359527954A95E2F78223013011053A
:100AD00041F068F00230110589F06FC00130110556
:100AE00019F42081822B0CC00130110520F480956F
:100AF0002081822305C00230110531F42081822734
:100B00008083A91708F459C0A91BE058FF4FA830EB
:100B100048F10230110559F4EF018A2F9881909520
:100B20009883C058DF4F88508830C0F731C081E0CB
:100B30000130110509F080E08195EF019A2F88833B
:100B4000C058DF4F98509830D0F788EF8A0F8695BD
:100B50008695869560E8869FE00DF11D1124E0588A
:100B6000FF4FA770AA2349F1B0E0A05ABA4F8C9169
:100B70000130110529F038F002301105D9F01DC0FF
:100B80009081892B03C0809590818923808315C033
:100B900088EF8A0F86958695869570E8879FE00D89
:100BA000F11D1124E058FF4FA77039F0B0E0A05AB2
:100BB000BA4F8C9190818927E9CFDF91CF911F9116
:100BC0000F910895FC0177FD9AC080859185681783
:100BD00079070CF094C057FD92C082859385481721
:100BE00059070CF08CC08589823009F07CC0848163
:100BF0009581DC01A61BB70BBD016150710986818F
:100C00009781FC01E41BF50BAF01415051090AC06B
:100C1000813041F484819581841B950BAB01BC012B
:100C2000615071092130310529F008F12230310578
:100C3000E1F10895FA0157FD3796A3E0F595E795A0
:100C4000AA95E1F7F695FE2FEE27F795E7956E0F3B
:100C50007F1FFB01E050FF4F4770552781E090E078
:100C600001C0880F4A95EAF79081892B3AC0FA01B2
:100C700057FD379623E0F595E7952A95E1F7F69528
:100C8000FE2FEE27F795E7956E0F7F1FFB01E050D3
:100C9000FF4F4770552781E090E001C0880F4A95CB
:100CA000EAF78095908189231CC0FA0157FD379699
:100CB00083E0F595E7958A95E1F7F695FE2FEE2707
:100CC000F795E7956E0F7F1FFB01E050FF4F4770D0
:100CD000552781E090E001C0880F4A95EAF790819E
:100CE000892780830895833009F092CF8681978188
:100CF000861B970BBA01AC014150510993CF08955F
:100D00000895FC016370658B84819581268137810C
:100D1000613039F0633029F09187808733872287EB
:100D20000895318720879387828708952F923F9275
:100D30004F925F926F927F928F929F92AF92BF92EB
:100D4000CF92DF92EF92FF920F931F93CF93DF9397
:100D5000CDB7DEB76C970FB6F894DEBF0FBECDBF30
:100D60009C8F8B8F5B011A011F830E833701C98211
:100D7000DC0158964D915C9159974115510509F048
:100D8000E5C018968D919C911997681779070CF01A
:100D9000CAC11A968D919C911B97281639060CF0A2
:100DA000C2C18C2C912CFB0136E0C39EE00DF11DDD
:100DB0001124FB87EA871E161F060CF0B4C1C4017C
:100DC00033E0880F991F3A95E1F79D878C87820D54
:100DD000931D181619060CF0A6C157968C91811117
:100DE00003C0203B08F02F5FAB8DBC8DED91FC91D3
:100DF00011970284F385E02DCD012A8F09952A8D64
:100E0000B5E02B9F90011124F5013596FF87EE8701
:100E1000BB82AA822501A9014A195B09598B488B1B
:100E2000C10108969B8B8A8BE889F989E40DF51D31
:100E3000E859FF4F9491988761013D822C82A885E3
:100E4000A0FF13C0AB8DBC8DED91FC91B981B13089
:100E500031F40484F585E02D2E813F8116C006848F
:100E6000F785E02DEE80FF801AC0EE81FF816E16BF
:100E70007F06F1F0AB8DBC8DED91FC91B981B13065
:100E800051F40484F585E02D9301A601B2018B8D08
:100E90009C8D09950DC00684F785E02D73018401B2
:100EA00094014C815D816A817B818B8D9C8D09953C
:100EB000E885E695E887FFEFCF1ADF0A2C813D81B0
:100EC000280D391D3D832C834A895B89C416D506BC
:100ED00009F0B5CF5FEF451A550A8A819B81880DCD
:100EE000991D9B838A83AE85BF854A165B0609F0F0
:100EF0009BCFEE81FF816E167F0609F4F2C0EB8D69
:100F0000FC8DA081B181F981F13079F4B5016B5F7D
:100F10007F4F5096ED91FC915197830128E030E08E
:100F2000A1018B8D9C8D0995DCC06A857B85681934
:100F300079091E96ED91FC911F9773010C851D8513
:100F40009401A1018B8D9C8D0995CBC0FA0134963B
:100F50009491329765917491291BCB01B7E02B9F37
:100F6000800D911D1124FA01259134913B8B2A8B20
:100F7000FC01459154915B834A83FC013296C490F5
:100F8000319654915E87329614913196D49089812E
:100F9000823058F0612E012E000C7708AD2D0D2CFB
:100FA000000CBB0BB987A88704C019861886612C72
:100FB000712CAB8DBC8DED91FC9111970284F38562
:100FC000E02DCD010995B9818B2E912C689CC00133
:100FD000699C900D789C900D1124FC01EA0DFB1D7D
:100FE000FD87EC871C82712C612CE12F110FFF0B08
:100FF00095012E0F3F1F3B872A87AC0CB11CA50122
:101000004E0F5F1F5F8B4E8BC1018D0D911DD7FC65
:101010009A95998F888F4E85641608F062C0862D48
:1010200090E048855985480F591F489D9001499D7A
:10103000300D589D300D1124D901A20DB31DB98B6F
:10104000A88BAA84BB844C845D84DC80BA85DB1ABF
:10105000E88DF98DE80FF91FFD8BEC8B8D2D8A0D36
:101060002E893F89A216B306B9F1877061F48A818F
:101070009B810196EA89FB89AA81BB81EA0FFB1F4C
:1010800074909B838A8377FE20C0AB8DBC8DED91DD
:10109000FC91B981B13061F40484F585E02D2E8195
:1010A0003F814C895D89B5018B8D9C8D09950DC063
:1010B0000684F785E02DEE80FF8084019401488945
:1010C0005989B2018B8D9C8D0995770CEFEFAE1A83
:1010D000BE0A480C591CC2CF3C813C0D3C83639432
:1010E0009ACFAB8DBC8DED91FC9111970688F78955
:1010F000E02DCD016C960FB6F894DEBF0FBECDBFCC
:10110000DF91CF911F910F91FF90EF90DF90CF90E3
:10111000BF90AF909F908F907F906F905F904F9017
:101120003F902F9009946C960FB6F894DEBF0FBED7
:10113000CDBFDF91CF911F910F91FF90EF90DF9086
:10114000CF90BF90AF909F908F907F906F905F9067
:101150004F903F902F900895AF92BF92CF92EF9211
:10116000FF920F931F93CF93DF93EC01262F888D6F
:10117000998D009709F040C06A3059F41D861C868D
:101180002C898E859F8538E0239F800D911D112429
:1011900041C06D3009F4AAC08E898823C1F03C8912
:1011A0008C859D8546E0349F800D911D11244885D6
:1011B0005985481759075CF41D861C868E859F85C6
:1011C00048E0349F800D911D11249F878E87EA8807
:1011D000FB88088919894E855F856C857D85CC885B
:1011E000CE010E9496062C898C859D8536E0239F32
:1011F000800D911D112442C06A3079F41D861C8631
:101200002C89FC013696E4918E859F852E9F800D5A
:10121000911D11249F878E8769C06D3009F466C0C7
:10122000FC0134963491631708F460C03196E49160
:10123000E61708F45BC0FC013296A590B490462FE7
:1012400050E0431B510937E0349FB001359F700DCA
:101250001124A60EB71EF501329634913196E49111
:10126000332311F0E1110DC0F5013496E4912C897E
:101270008C859D85E29F800D911D11249D878C8713
:1012800035C0F501359644915E89552311F16C897D
:10129000E32FF0E0E40FF11D47FDFA956E9FD001BA
:1012A0006F9FB00D11244C855D854A0F5B1FE8854B
:1012B000F985E417F5076CF41D861C86FC0136964B
:1012C000E4918E859F856E9F800D911D11249F87CF
:1012D0008E87EA88FB88088919894E855F856C8529
:1012E0007D85CC88CE010E949606BECF81E090E03D
:1012F000DF91CF911F910F91FF90EF90CF90BF9012
:10130000AF9008956F927F928F929F92AF92BF920B
:10131000CF92DF92EF92FF920F931F93CF93DF93C1
:10132000EC014B015A0169013801E881F98102841D
:10133000F385E02D0995E881F9810288F389E02D94
:1013400087019601A501B401CE010995E881F981D3
:10135000A501460D571D415051090288F389E02D22
:101360009601B401CE010995E881F9810088F189DF
:10137000E02D9301A501B401CE010995E881F98121
:10138000C80CD91CB601615071090088F189E02DA3
:101390009301A501CE010995E881F9810688F789B5
:1013A000E02DCE01DF91CF911F910F91FF90EF9033
:1013B000DF90CF90BF90AF909F908F907F906F9075
:1013C0000994CF92DF92EF92FF920F931F93CF93E6
:1013D000DF9300D000D000D0CDB7DEB76C01DC01C8
:1013E000ED91FC916217730789F4041715072CF42B
:1013F000942F852FA801092F182F041B150B980176
:101400002F5F3F4F048CF58DE02D12C04017510720
:1014100009F5261737072CF4962F872FB901292FA6
:10142000382F261B370B2F5F3F4F068CF78DE02D93
:101430008701C601099526960FB6F894DEBF0FBE48
:10144000CDBFDF91CF911F910F91FF90EF90DF9073
:10145000CF9008950284F385E02D2D833E834B8346
:101460005C8369837A830995D601ED91FC910488A8
:10147000F589E02D2D813E814B815C8169817A81E6
:10148000C6010995D601ED91FC910688F789E02DFA
:10149000C60126960FB6F894DEBF0FBECDBFDF9112
:1014A000CF911F910F91FF90EF90DF90CF90099413
:1014B000EF92FF920F931F93DC01ED91FC91119736
:1014C0001A960D911C911B9718962D913C91199786
:1014D00000A0F1A1E02D7B0140E050E060E070E071
:1014E00009951F910F91FF90EF9008954F925F9291
:1014F0006F927F928F929F92AF92BF92CF92DF9224
:10150000EF92FF920F931F93CF93DF9300D0CDB74D
:10151000DEB76C015A0139014801DC01ED91FC9103
:101520000284F385E02D69837A8309956981462ECB
:101530007A81572E640C751CD601ED91FC914614EE
:1015400057046CF40088F189E02D87019401A5010E
:10155000B201C6010995BFEF4B1A5B0AEDCF0688B1
:10156000F789E02DC6010F900F90DF91CF911F9169
:101570000F91FF90EF90DF90CF90BF90AF909F9032
:101580008F907F906F905F904F900994AF92BF9231
:10159000CF92DF92EF92FF920F931F93CF93DF933F
:1015A00000D000D0CDB7DEB75C016901DC01ED9160
:1015B000FC910284F385E02D4B835C8369837A83FD
:1015C0000995D501ED91FC9169817A819B012C0DE2
:1015D0003D1D215031090488F589E02D78014B81AA
:1015E0005C818A01C5010995D501ED91FC910688C0
:1015F000F789E02DC5010F900F900F900F90DF91AC
:10160000CF911F910F91FF90EF90DF90CF90BF90FF
:10161000AF900994AF92BF92CF92DF92EF92FF9278
:101620000F931F93CF93DF9300D000D0CDB7DEB7D9
:101630005C016901DC01ED91FC910284F385E02DF0
:101640004B835C8369837A830995D501ED91FC9185
:101650004B815C81C40ED51EB1E0CB1AD108048841
:10166000F589E02D7801860169817A819B01C501A8
:101670000995D501ED91FC910688F789E02DC5010A
:101680000F900F900F900F90DF91CF911F910F91BE
:10169000FF90EF90DF90CF90BF90AF9009940895A6
:1016A000EF92FF920F931F93DC01ED91FC9100A04C
:1016B000F1A1E02D09951F910F91FF90EF900895F2
:1016C0000F931F93DC01ED91FC91068CF78DE02DBB
:1016D00009951F910F9108950F931F93DC01ED91D0
:1016E000FC91048CF58DE02D09951F910F910895C3
:1016F000DC01ED91FC910084F185E02D09940895C1
:101700002F923F924F925F926F927F928F929F9211
:10171000AF92BF92CF92DF92EF92FF920F931F93FF
:10172000CF93DF9300D01F92CDB7DEB74C017B8300
:101730006A836A01590117019801241B350B37FF91
:1017400003C0319521953109C5014A815B81841B14
:10175000950B97FF03C091958195910951E05983AD
:101760008217930714F019820BC09A2D8B2D580104
:10177000092F182F9A818B81DB82CA82C92ED82E1D
:101780008A819B81A816B9065CF49C2D8D2D680179
:10179000092F182F9A818B81BB82AA82A92EB82E7D
:1017A0002501AA81BB814A1A5B0A38016C187D08A1
:1017B00077FE03C0719461947108720157FE03C0F3
:1017C000BFEFEB1AFB0AF594E794C016D1061CF0A4
:1017D0000FEF1FEF1FC001E010E01CC0D401ED911E
:1017E000FC91B9810484F585E02D9101BB23C1F002
:1017F0004A815B81B601C4010995E618F708F7FE36
:1018000004C0C00ED11EE40CF51CEA81FB813196A8
:10181000FB83EA834A815B81A416B506FCF604C00B
:10182000A6016A817B81E7CF0F900F900F90DF9127
:10183000CF911F910F91FF90EF90DF90CF90BF90CD
:10184000AF909F908F907F906F905F904F903F9060
:101850002F90089585ED8093BC008091BC0084FD9D
:10186000FCCF10927D06089540911C06262F30E093
:10187000240F311D21323105DCF420917D06243006
:10188000C9F4FC0180E090E0861758F430911C0602
:101890002191DC01A650BA4FA30FB11D2C930196E4
:1018A000F3CF80911C06680F60931C0680E00895BA
:1018B00081E0089582E00895089581E090E03091FC
:1018C0004B0620914A06321710F480E090E0919583
:1018D00081959109089580914B0690914A06891748
:1018E00030F48F5F80934B0680E090E008958FEF97
:1018F0009FEF089580914A0690E020914B06821B4D
:1019000091090895CF92DF92EF92FF920F931F9368
:10191000CF93DF937C01262F972F8A0180917E063B
:10192000882391F0C62FD72F6E01C40ED51ECC157B
:10193000DD0571F06991D701ED91FC910190F08185
:10194000E02DC7010995F3CF642F822F0E94340C3C
:10195000C801DF91CF911F910F91FF90EF90DF9021
:10196000CF900895CF93DF931F92CDB7DEB76983F1
:1019700020917E062223D1F02091A106203240F052
:1019800021E030E0FC013383228380E090E015C049
:1019900080917F06E82FF0E0E058F94F998190831D
:1019A0008F5F80937F068093A10605C061E0CE0122
:1019B00001960E94340C81E090E00F90DF91CF916E
:1019C0000895089580E090E008958F929F92AF92DD
:1019D000BF92CF92DF92EF92FF926B017C010E9447
:1019E00007034B015C01C114D104E104F104F1F0DF
:1019F0000E940703DC01CB0188199909AA09BB09D8
:101A0000883E9340A105B10570F321E0C21AD108C8
:101A1000E108F10888EE880E83E0981EA11CB11C35
:101A2000C114D104E104F10419F7DDCFFF90EF9068
:101A3000DF90CF90BF90AF909F908F9008952FB779
:101A4000F89460914206709143068091440690910B
:101A500045062FBF08951F920F920FB60F921124C3
:101A60002F933F938F939F93AF93BF9380914206A1
:101A700090914306A0914406B091450630914106ED
:101A800023E0230F2D3720F40196A11DB11D05C0C1
:101A900026E8230F0296A11DB11D209341068093D5
:101AA000420690934306A0934406B0934506809166
:101AB000460690914706A0914806B09149060196C6
:101AC000A11DB11D8093460690934706A09348063A
:101AD000B0934906BF91AF919F918F913F912F9104
:101AE0000F900FBE0F901F9018951F920F920FB678
:101AF0000F9211242F933F934F935F936F937F9394
:101B00008F939F93AF93BF93EF93FF938091B9000F
:101B1000887F803609F49CC068F5883209F45BC080
:101B200090F4803109F454C038F4882309F4F6C0E5
:101B3000883009F44DC0F6C0883109F44CC08032B9
:101B400009F45DC0EFC0803409F468C048F4803304
:101B500009F455C0883309F0E5C080937B06D8C0EE
:101B6000803509F44FC0883509F45DC0883409F028
:101B7000D9C0D6C0883909F4C7C0A8F4883709F499
:101B800067C038F4883609F463C0803709F460C050
:101B9000C9C0883809F4B8C0803909F45FC08038FA
:101BA00009F0C0C05BC0803B09F486C038F4803ABD
:101BB00009F466C0883A09F47FC0B4C0803C09F4D7
:101BC000A7C0883C09F4A4C0883B09F48AC0AAC015
:101BD0008091580610C090917A06809179069817E6
:101BE00070F5E0917A0681E08E0F80937A06F0E03E
:101BF000E75AF94F80818093BB0085EC86C08093C3
:101C00007B068EC0E0917A0681E08E0F80937A0683
:101C10008091BB00F0E0E75AF94F808390917A06FB
:101C2000809179066EC0E0917A0681E08E0F8093F4
:101C30007A068091BB00F0E0E75AF94F80838091EB
:101C40007C0681116DC081E08093570684EA61C0F3
:101C500083E080937D0610924006CFCF80914006AE
:101C6000803208F051C0E091400681E08E0F8093F1
:101C700040068091BB00F0E0E05EF94F8083BDCF6D
:101C800085EC8093BC0010927D06809140068032E6
:101C900030F4E0914006F0E0E05EF94F1082609190
:101CA000400670E0E0911E06F0911F0680E296E08B
:101CB00009951092400636C084E080937D0610920C
:101CC0001D0610921C06E0911A06F0911B0609955C
:101CD00080911C06811105C081E080931C06109242
:101CE000FA05E0911D0681E08E0F80931D06F0E05D
:101CF000E650FA4F80818093BB0090911D06809141
:101D00001C06981708F479CF85E88093BC000AC0B8
:101D100085EC8093BC0010927D0604C010927B0677
:101D20000E942A0CFF91EF91BF91AF919F918F91EB
:101D30007F916F915F914F913F912F910F900FBEC7
:101D40000F901F9018952F923F924F925F926F9233
:101D50007F928F929F92AF92BF92CF92DF92EF923B
:101D6000FF920F931F93CF93DF93CDB7DEB72F97DB
:101D70000FB6F894DEBF0FBECDBF9C838B8321E0EE
:101D800029870F9709F019863985232E312CD10127
:101D90001896AA0FBB1FAA0FBB1FAE52BA4FF10174
:101DA0003696EE0FFF1FEE0FFF1FEE52FA4F4081E7
:101DB0005181628173814D935D936D937C931397F1
:101DC000D1011496AA0FBB1FAA0FBB1FAE52BA4F68
:101DD0004D915D916D917C91139740835183628306
:101DE0007383F1013296EE0FFF1FEE0FFF1FEE52CD
:101DF000FA4F40815181628173814D935D936D9360
:101E00007C931397C101880F991F880F991F9B8797
:101E10008A878E529A4FDC014D915D916D917C9134
:101E200040835183628373838B818E3008F08E50A0
:101E30008770806480937C0080917A0080648093B6
:101E40007A0080917A0086FDFCCFC0907800809166
:101E50007900D12CD82A00E015E01A8219820D2CC5
:101E6000000CEE08FF08C701B6010E94761A4B016C
:101E70005C01D8014D905D906D907C90A301920122
:101E80000E94C71987FDD7C0A3019201C501B40103
:101E90000E94261B87FDCFC0E981FA813196FD871C
:101EA000EC87D80118968D919D910D90BC91A02D35
:101EB0008D839E83AF83B8879C01AD01C501B401BA
:101EC0000E94C71918160CF4B6C08C859D85B3E026
:101ED000880F991FBA95E1F79C0120503B4FD9011B
:101EE00014968D919D910D90BC91A02D8C879D870E
:101EF000AE87BF87E981FA8113E0EE0FFF1F1A95C5
:101F0000E1F7E050FB4FC480D580E680F780A70161
:101F10009601BC01CD010E945A19A50194010E94AD
:101F20002B1B4B015C01A70196016D817E818F8186
:101F300098850E942B1B9B01AC01C501B4010E9436
:101F40005B196B017C012C853D854E855F85C30146
:101F5000B2010E942B1B9B01AC01C701B6010E947C
:101F60005A196B017C01A30192016D817E818F81E1
:101F700098850E945A199B01AC01C701B6010E94C5
:101F8000CC19EA85FB85EE52FA4F60837183828318
:101F90009383F10138965F0181010A5F1F4F910120
:101FA0002C5F3F4F7901D10112966D01EB81FC81CD
:101FB0003E9709F049C0FD01EE0FFF1FEE0FFF1F16
:101FC000EE52FA4F20813181428153810E945B1988
:101FD000F701EE0FFF1FEE0FFF1FEE52FA4F2081A9
:101FE0003181428153810E945B19F801EE0FFF1F7E
:101FF000EE0FFF1FEE52FA4F208131814281538153
:102000000E945B19F501EE0FFF1FEE0FFF1FEE524E
:10201000FA4F20813181428153810E945B1920E077
:1020200030E040EA50E40E94CC1942E00E945D1486
:1020300060EC75E04CC029813A812F5F3F4F3A83B5
:102040002983085F1F4F0FCFB985BB2309F443C015
:10205000F601EE0FFF1FEE0FFF1FEE52FA4F208129
:102060003181428153810E945B19F701EE0FFF1FFE
:10207000EE0FFF1FEE52FA4F2081318142815381D2
:102080000E945B19F801EE0FFF1FEE0FFF1FEE52CB
:10209000FA4F20813181428153810E945B19F50101
:1020A000EE0FFF1FEE0FFF1FEE52FA4F208131811E
:1020B000428153810E945B1920E030E040EA50E405
:1020C0000E94CC1942E00E945D1462EC75E082EA45
:1020D00096E00E94FF13AA85BB85AE52BA4FF60167
:1020E000EE0FFF1FEE0FFF1FEE52FA4F20813181DE
:1020F000428153816D917D918D919C910E945B19DC
:10210000F701EE0FFF1FEE0FFF1FEE52FA4F208177
:102110003181428153810E945B19000F111F000F12
:10212000111FF801EE52FA4F208131814281538113
:102130000E945B199501220F331F220F331F2E526D
:102140003A4FF90120813181428153810E945B190C
:1021500020E030E040EA50E40E94CC192F960FB600
:10216000F894DEBF0FBECDBFDF91CF911F910F91CD
:10217000FF90EF90DF90CF90BF90AF909F908F90A7
:102180007F906F905F904F903F902F900895FC014B
:10219000538D448D252F30E0842F90E0821B930BCC
:1021A000541710F0CF96089501970895FC01918D72
:1021B000828D981761F0828DDF01A80FB11D5D96A9
:1021C0008C91928D9F5F9F73928F90E008958FEF17
:1021D0009FEF0895FC01918D828D981731F0828DCB
:1021E000E80FF11D858D90E008958FEF9FEF089522
:1021F000FC01918D228D892F90E0805C9F4F821B86
:1022000091098F739927089582EA96E00E94F81049
:1022100021E0892B09F420E0822F0895FC01848DB0
:10222000DF01A80FB11DA35ABF4F2C91848D90E000
:1022300001968F739927848FA689B7892C93A089DB
:10224000B1898C9180648C93938D848D981306C092
:102250000288F389E02D80818F7D80830895EF923D
:10226000FF920F931F93CF93DF93EC0181E0888F50
:102270009B8D8C8D981305C0E889F989808185FD37
:1022800024C0F62E0B8D10E00F5F1F4F0F73112728
:10229000E02E8C8DE8120CC00FB607FCFACFE8894F
:1022A000F989808185FFF5CFCE010E940E11F1CF13
:1022B0008B8DFE01E80FF11DE35AFF4FF0820B8F6B
:1022C000EA89FB898081806207C0EE89FF8960838B
:1022D000E889F98980818064808381E090E0DF91E2
:1022E000CF911F910F91FF90EF900895CF93DF93BF
:1022F000EC01888D8823C9F0EA89FB89808185FDFE
:1023000005C0A889B9898C9186FD0FC00FB607FC5E
:10231000F5CF808185FFF2CFA889B9898C9185FF9F
:10232000EDCFCE010E940E11E7CFDF91CF9108953E
:1023300080E090E0892B29F00E94041181110C9417
:102340000000089590E0FC01E859FA4F3491FC0137
:10235000EA57FA4F2491FC01EC55FA4FE491EE2331
:1023600009F43BC0332339F1333091F038F4313084
:10237000A9F0323001F584B58F7D12C0373091F06D
:102380003830A1F03430B9F4809180008F7D03C0E3
:10239000809180008F77809380000DC084B58F7707
:1023A00084BD09C08091B0008F7703C08091B000D8
:1023B0008F7D8093B000F0E0EE0FFF1FE656FA4FDE
:1023C000A591B4918FB7F894EC91611103C0209559
:1023D0002E2301C02E2B2C938FBF0895CF93DF9314
:1023E00090E0FC01EA57FA4F2491FC01EC55FA4FBA
:1023F0008491882361F190E0880F991FFC01E458D3
:10240000FA4FC591D491FC01E656FA4FA591B491CB
:10241000611109C09FB7F894888120958223888331
:10242000EC912E230BC0623061F49FB7F894388191
:10243000822F809583238883EC912E2B2C939FBF32
:1024400006C08FB7F894E8812E2B28838FBFDF91C9
:10245000CF9108950E94C51B1F920F920FB60F9245
:1024600011242F933F934F935F936F937F938F9399
:102470009F93AF93BF93EF93FF9382EA96E00E94FE
:102480000E11FF91EF91BF91AF919F918F917F912D
:102490006F915F914F913F912F910F900FBE0F90D1
:1024A0001F9018951F920F920FB60F9211242F9321
:1024B0008F939F93EF93FF93E091B206F091B30651
:1024C0008081E091B806F091B90682FD12C090813A
:1024D0008091BB068F5F8F732091BC06821751F0ED
:1024E000E091BB06F0E0EE55F94F958F8093BB0667
:1024F00001C08081FF91EF919F918F912F910F905B
:102500000FBE0F901F901895DC01ED91FC9101908A
:10251000F081E02D0994CF92DF92EF92FF920F931A
:102520001F93CF93DF936C017A018B01C0E0D0E061
:10253000CE15DF0589F0D8016D918D01D601ED91A1
:10254000FC910190F081E02DC6010995892B11F4D1
:102550007E0102C02196ECCFC701DF91CF911F9180
:102560000F91FF90EF90DF90CF9008952091A106FA
:102570009091A006213208F04AC080917D06811119
:10258000FCCF32E030937D0631E030937C063FEFA4
:1025900030937B0610927A0620937906A0E8B6E085
:1025A00049E556E0FA013E2F341B321718F43D91ED
:1025B0003193F9CF1092580620915806990F922B1B
:1025C0009093580690915706913061F410925706F7
:1025D000909158069093BB009091BC0093FDF8CF6A
:1025E00095EC01C095EE9093BC0090917D069230E1
:1025F000E1F390917B069F3F79F080917B068032DA
:1026000041F080917B06803331F084E005C081E0A9
:1026100003C082E001C083E010927F061092A10601
:1026200010927E06089590916C07992339F08EBD23
:1026300000000DB407FEFDCF8EB5089528E030E010
:1026400040E8E0916F07F091700750819091760714
:10265000909595239083E0916D07F0916E0790918E
:102660007507542F582319F05081952B03C05081C2
:10267000909595239083E0916F07F09170075081BA
:1026800090917607952B9083469521503109C9F694
:102690000895CF93C82F809167078F3F59F1E0913C
:1026A0007107F0917207808190917707982B908342
:1026B000E0917307F09174072081909178079095CD
:1026C00092239083E0917107F0917207208190919D
:1026D00077079095922390838C2F0E941313E0919B
:1026E0007107F0917207908180917707892B808321
:1026F000CF9108958091650791E090937E06809335
:10270000A00610927F061092A10660E08FE397E08A
:102710000E94B20C6C2F8FE397E00E94B20CCF9115
:102720000C94B6124F925F926F927F928F929F920B
:10273000AF92BF92CF92DF92EF92FF920F931F93CF
:10274000CF93DF937C01CCEEDFEF9FE0A92EB12C7D
:1027500081E7C82ED12C00E010E04E0184E1880E04
:10276000911C35016C1A7D0A270180E4481A510832
:1027700084E1881691043CF421E030E0C80105971B
:10278000059780F00BC0C830D10550F40C171D0719
:102790003CF021E030E00615170524F020E002C0EF
:1027A00020E030E080E4E816F10414F0A20101C05A
:1027B000A701B6018BE497E00E94E2050F5F1F4F6F
:1027C0008FEFC81AD80A0F30110591F68FEFE81A6B
:1027D000F80A2196CC30D10509F0BACFDF91CF911C
:1027E0001F910F91FF90EF90DF90CF90BF90AF902F
:1027F0009F908F907F906F905F904F90089561159C
:10280000710579F0FB0101900020E9F73197AF01E4
:10281000461B570BDC01ED91FC910280F381E02D0A
:10282000099480E090E008954F925F926F927F92BA
:10283000EF92FF920F931F93CF93DF93CDB7DEB745
:10284000A1970FB6F894DEBF0FBECDBF7C01FA0191
:10285000CB0119A2223008F42AE08E010F5D1F4F30
:10286000422E512C612C712CBF01A30192010E94B8
:102870009D1BF901CA01015011096A3014F4605D11
:1028800001C0695CD8016C93232B242B252B61F7A5
:10289000B801C7010E94FF13A1960FB6F894DEBFDE
:1028A0000FBECDBFDF91CF911F910F91FF90EF90A1
:1028B0007F906F905F904F9008954F925F926F92CC
:1028C0007F928F929F92AF92BF92CF92DF92EF92C0
:1028D000FF926B017C01B42E9B01AC010E94981BFE
:1028E000882319F065EC75E027C026013701E894CC
:1028F00077F82FEF3FEF4FE75FE7C301B2010E9488
:10290000981B81110DC02FEF3FEF4FE75FE7C30129
:10291000B2010E94C71918161CF469EC75E00CC0CE
:102920002FEF3FEF4FE75FE4C701B6010E94261B80
:10293000181694F46DEC75E082EA96E0FF90EF9043
:10294000DF90CF90BF90AF909F908F907F906F90CF
:102950005F904F900C94FF132FEF3FEF4FE75FEC2A
:10296000C701B6010E94C71987FDE4CF20E030E01F
:10297000A901C701B6010E94C71987FF0BC06DE20C
:1029800082EA96E00E9484124C01F7FAF094F7F87C
:10299000F09402C0812C912CA12C60E070E080E0CA
:1029A0009FE3AB1441F020E030E040E251E40E94AC
:1029B000CC19A394F6CF9B01AC01C701B6010E94CC
:1029C0005B192B013C010E94451A6B017C010E949E
:1029D000741A9B01AC01C301B2010E945A192B0168
:1029E0003C012AE0B701A60182EA96E00E94141495
:1029F0007C01E80CF91CBB2039F06EE282EA96E01B
:102A00000E948412E80EF91EDB2CDD2031F120E05B
:102A100030E040E251E4C301B2010E942B1B2B01C4
:102A20003C010E94451A4B01A12CB12C2AE0B501B2
:102A3000A40182EA96E00E941414E80EF91EC50172
:102A4000B4010E94741A9B01AC01C301B2010E943F
:102A50005A192B013C01DA94D8CFC701FF90EF90AF
:102A6000DF90CF90BF90AF909F908F907F906F90AE
:102A70005F904F900895CF92DF92EF92FF92CF93A5
:102A8000DF936C01990FEE08FF08F7FE1BC06DE2A3
:102A90008BE497E00E948412EC0144275527BA0189
:102AA0004C195D096E097F092AE08BE497E00E94CA
:102AB00014148C0F9D1FDF91CF91FF90EF90DF904A
:102AC000CF9008952AE0B701A6018BE497E0DF914B
:102AD000CF91FF90EF90DF90CF900C9414148F92D1
:102AE0009F92AF92BF92CF92DF92EF92FF920F939D
:102AF0001F93CF93DF93EC014A015B01CB01BA0135
:102B00000E943E1A6B017C018B01072E000C880B82
:102B1000990B0E94761A9B01AC01C501B4010E9479
:102B20005A1920E030E040E251E40E942B1B20E0E3
:102B300030E040E05FE30E945B190E943E1A4B01C7
:102B40005C0184E080935F0721E030E030935E0712
:102B500020935D0730935C0720935B071092580722
:102B600010925707D0935A07C09359070A3011059E
:102B70002CF460E28BE497E00E948412C6010E946C
:102B80003B1513E010935F078CE290E09093580799
:102B900080935707CE01079690935A078093590761
:102BA0006CE28BE497E00E94841284E080935F07DC
:102BB0008CE390E09093580780935707D0935A077F
:102BC000C0935907C4010E943B1582E080935F07C0
:102BD00084E590E09093580780935707CE010497BF
:102BE00090935A07809359076FE68BE497E00E9411
:102BF000841210935F0780E690E0909358078093CB
:102C00005707D0935A07C093590763E48BE497E0C2
:102C1000DF91CF911F910F91FF90EF90DF90CF90B8
:102C2000BF90AF909F908F900C948412789484B54D
:102C3000826084BD84B5816084BD85B5826085BDB8
:102C400085B5816085BD80916E00816080936E0046
:102C50001092810080918100826080938100809138
:102C600081008160809381008091800081608093E9
:102C700080008091B10084608093B1008091B000A9
:102C800081608093B00080917A00846080937A00A4
:102C900080917A00826080937A0080917A008160CE
:102CA00080937A0080917A00806880937A001092F5
:102CB000C100E091B206F091B30692E09083E091FA
:102CC000AE06F091AF061082E091B006F091B10629
:102CD0008FEC80831092BA06E091B606F091B706A9
:102CE00086E08083E091B406F091B5068081806132
:102CF0008083E091B406F091B5068081886080837E
:102D0000E091B406F091B506808180688083E091FF
:102D1000B406F091B50680818F7D8083909366071D
:102D20008CE380936507809167078F3F09F4BDC0EE
:102D300061E0809169070E94EE1161E080916B076C
:102D40000E94EE1180916B07082E000C990BFC017C
:102D5000EC55FA4FE491F0E0EE0FFF1FE656FA4F04
:102D6000259134913093720720937107FC01EA5743
:102D7000FA4FE491E093770780916907082E000CE1
:102D8000990BFC01EC55FA4FE491F0E0EE0FFF1FB8
:102D9000E656FA4F259134913093740720937307C8
:102DA000FC01EA57FA4FE491E093780780916C07B1
:102DB00081113EC061E0809167070E94EE1161E0E1
:102DC000809168070E94EE1180916807082E000C20
:102DD000990BFC01EC55FA4FE491F0E0EE0FFF1F68
:102DE000E656FA4F259134913093700720936F0780
:102DF000FC01EA57FA4FE491E09376078091670768
:102E0000082E000C990BFC01EC55FA4FE491F0E010
:102E1000EE0FFF1FE656FA4F2591349130936E075F
:102E200020936D07FC01EA57FA4FE491E093750790
:102E300080916C07882309F45FC0CFB7F894809124
:102E40004C06811127C0EEEAF5E08491E0E9F5E057
:102E50009491E82FF0E0EE0FFF1FE458FA4FA59190
:102E6000B491EC91E92321F461E08AE00E94A2117F
:102E700061E08AE00E94EE118CB580618CBD8CB55A
:102E800080648CBD61E08DE00E94EE1161E08BE01A
:102E90000E94EE1180914C068F5F80934C06CFBF4D
:102EA00080E58CBD81E08DBD27C010924B0610924D
:102EB0004A0610927F061092A10610927D0681E0CC
:102EC00080937C061092570661E082E10E94A21175
:102ED00061E083E10E94A2118091B9008E7F80930E
:102EE000B9008091B9008D7F8093B90088E4809308
:102EF000B80085E48093BC0080916A0787FD1EC0FE
:102F000061E00E94EE1161E080916A070E94A211C7
:102F100061E070E080E090E00E94E50C60E080916C
:102F20006A070E94A2116AE070E080E090E00E94CF
:102F3000E50C61E080916A070E94A2118EEA0E946E
:102F4000491385ED0E94491380E80E94491388EADD
:102F50000E9449138FE30E94491383ED0E94491395
:102F600080E00E94491380E40E9449138DE80E948A
:102F7000491384E10E94491380E20E94491380E0D2
:102F80000E94491381EA0E94491388EC0E94491368
:102F90008AED0E94491382E10E94491381E80E9450
:102FA00049138FEC0E94491389ED0E94491381EF68
:102FB0000E9449138BED0E94491380E40E9449133B
:102FC00084EA0E94491386EA0E9449138EE20E9415
:102FD00049138FEA0E94491380E094E0E0E0F1E0B9
:102FE000DF019C011D9221503040E1F760E08EE04E
:102FF0000E94EE1160E08FE00E94EE118CE0B82E8E
:1030000090E0E92E91E0F92EAA24A394C12C24E0AB
:10301000D22E0E941F0D009153061091540620914C
:10302000550630915606DC01CB01801B910BA20B9B
:10303000B30B85369105A105B10508F4D3C00E94F4
:103040001F0D60935306709354068093550690931A
:1030500056060E941F0D00914F06109150062091B8
:10306000510630915206DC01CB01801B910BA20B63
:10307000B30B893E9340A105B10518F10E941F0DC5
:1030800060934F06709350068093510690935206BA
:10309000D701F6011D923197E9F78EE090E00E948A
:1030A000A30EAB01BC0180E090E00E946F158FE0A1
:1030B00090E00E94A30EAB01BC0181E290E00E946F
:1030C0006F15C0914D06D0914E06CE010E9492130D
:1030D000CE0180960E94921381E20E94491380E003
:1030E0000E9449138FE70E94491382E20E9449130C
:1030F00080E00E94491387E00E944913809167078E
:103100008F3F79F1E0917107F09172079081809182
:103110007707892B8083E0917307F0917407908182
:1031200080917807892B8083E0917107F091720775
:10313000908180917707809589238083C0E0D1E0DA
:1031400089910E941313F5E0C030DF07C9F7E091C1
:103150007107F0917207908180917707892B8083A6
:103160002DC09090B800B092B800C0E0D1E080913E
:103170006507A0927E068093A00610927F061092AB
:10318000A10660E48FE397E00E94B20C00E010E03B
:10319000FE01E00FF11F60818FE397E00E94B20C07
:1031A0000F5F1F4F0031110599F70E94B61260960C
:1031B00025E0C030D207D9F69092B80080914D0634
:1031C00090914E069C012E5F3F4F203431052CF428
:1031D00030934E0620934D0605C0CE9790934E0631
:1031E00080934D060E94981114CFE2EAF6E0138214
:1031F000128288EE93E0A0E0B0E084839583A683FA
:10320000B78324E735E03183208325EC30E0358730
:10321000248724EC30E03787268720EC30E0318BA0
:10322000208B21EC30E0338B228B22EC30E0358B8D
:10323000248B26EC30E0378B268B118E128E138E6A
:10324000148EEFE3F7E01382128284839583A683C2
:10325000B78386E895E091838083EBE4F7E01382FF
:10326000128220E830E03583248380E490E0978365
:1032700086833187208793878287158A15861486EF
:103280001786168681E0848B2FEF3FEF338B228BDE
:10329000318B208B868B178A118E108E88E995E0F2
:1032A000918380838FEF848F80A3868F858F84E0C6
:1032B000878F08955058BB27AA270E9472190C9433
:1032C000EC1A0E94DE1A38F00E94E51A20F039F458
:1032D0009F3F19F426F40C94DB1A0EF4E095E7FBFB
:1032E0000C94D51AE92F0E94FD1A58F3BA176207F9
:1032F00073078407950720F079F4A6F50C941F1B3B
:103300000EF4E0950B2EBA2FA02D0B01B901900100
:103310000C01CA01A0011124FF27591B99F0593F44
:1033200050F4503E68F11A16F040A22F232F342F8C
:103330004427585FF3CF469537952795A795F040DA
:103340005395C9F77EF41F16BA0B620B730B840BEF
:10335000BAF09150A1F0FF0FBB1F661F771F881FA7
:10336000C2F70EC0BA0F621F731F841F48F48795FF
:1033700077956795B795F7959E3F08F0B0CF9395F1
:10338000880F08F09927EE0F9795879508950E946A
:10339000B11A08F481E008950E94E0190C94EC1A27
:1033A0000E94E51A58F00E94DE1A40F029F45F3FAF
:1033B00029F00C94D51A51110C94201B0C94DB1A93
:1033C0000E94FD1A68F39923B1F3552391F3951BDD
:1033D000550BBB27AA2762177307840738F09F5F36
:1033E0005F4F220F331F441FAA1FA9F335D00E2EA3
:1033F0003AF0E0E832D091505040E695001CCAF710
:103400002BD0FE2F29D0660F771F881FBB1F2617D2
:1034100037074807AB07B0E809F0BB0B802DBF01A9
:10342000FF2793585F4F3AF09E3F510578F00C9478
:10343000D51A0C94201B5F3FE4F3983ED4F3869595
:1034400077956795B795F7959F5FC9F7880F911D99
:103450009695879597F90895E1E0660F771F881F85
:10346000BB1F621773078407BA0720F0621B730B38
:10347000840BBA0BEE1F88F7E09508950E94451A59
:103480006894B1110C94201B08950E94051B88F0CC
:103490009F5798F0B92F9927B751B0F0E1F0660F18
:1034A000771F881F991F1AF0BA95C9F714C0B13059
:1034B00091F00E941F1BB1E008950C941F1B672F11
:1034C000782F8827B85F39F0B93FCCF38695779588
:1034D0006795B395D9F73EF4909580957095619571
:1034E0007F4F8F4F9F4F0895E89409C097FB3EF49C
:1034F00090958095709561957F4F8F4F9F4F992341
:10350000A9F0F92F96E9BB279395F69587957795BE
:103510006795B795F111F8CFFAF4BB0F11F460FF7E
:103520001BC06F5F7F4F8F4F9F4F16C0882311F0D6
:1035300096E911C0772321F09EE8872F762F05C0EA
:10354000662371F096E8862F70E060E02AF09A9585
:10355000660F771F881FDAF7880F9695879597F97A
:103560000895990F0008550FAA0BE0E8FEEF161614
:103570001706E807F907C0F012161306E407F50767
:1035800098F0621B730B840B950B39F40A2661F0DB
:10359000232B242B252B21F408950A2609F4A1407E
:1035A000A6958FEF811D811D089597F99F6780E88B
:1035B00070E060E008959FEF80EC089500240A9485
:1035C0001616170618060906089500240A941216FE
:1035D0001306140605060895092E0394000C11F431
:1035E000882352F0BB0F40F4BF2B11F460FF04C0DE
:1035F0006F5F7F4F8F4F9F4F089557FD9058440F37
:10360000551F59F05F3F71F04795880F97FB991F41
:1036100061F09F3F79F087950895121613061406FE
:10362000551FF2CF4695F1DF08C01616170618068B
:10363000991FF1CF86957105610508940895E89466
:10364000BB2766277727CB0197F908950E94B11A07
:1036500008F48FEF08950E943E1B0C94EC1A0E9410
:10366000DE1A38F00E94E51A20F0952311F00C9430
:10367000D51A0C94DB1A11240C94201B0E94FD1AFD
:1036800070F3959FC1F3950F50E0551F629FF001B5
:10369000729FBB27F00DB11D639FAA27F00DB11DCE
:1036A000AA1F649F6627B00DA11D661F829F222757
:1036B000B00DA11D621F739FB00DA11D621F839FDE
:1036C000A00D611D221F749F3327A00D611D231FB4
:1036D000849F600D211D822F762F6A2F11249F5702
:1036E00050409AF0F1F088234AF0EE0FFF1FBB1F05
:1036F000661F771F881F91505040A9F79E3F5105C4
:1037000080F00C94D51A0C94201B5F3FE4F3983E94
:10371000D4F3869577956795B795F795E7959F5F6D
:10372000C1F7FE2B880F911D9695879597F90895FF
:103730000E94B11A880B990B0895A1E21A2EAA1BB8
:10374000BB1BFD010DC0AA1FBB1FEE1FFF1FA21751
:10375000B307E407F50720F0A21BB30BE40BF50B4E
:10376000661F771F881F991F1A9469F760957095D7
:10377000809590959B01AC01BD01CF010895EE0F9E
:10378000FF1F0590F491E02D099481E090E0F894FA
:083790000C94CA1BF894FFCF52
:103798000000000000000000000000000000000021
:1037A8000000000000000000000000000000000011
:1037B8000000000000000000000000000000000001
:1037C8000000000000000000000000000000008071
:1037D80080800000000000000000000000000000E1
:1037E800008080C0C0000000000000000000000051
:1037F80000000000000000000000000000000000C1
:1038080000000000000000000000000000000000B0
:1038180000000000000000000000000000000000A0
:103828000000000080C0E0F0F8FCF8E000000000B4
:103838000000000000000000000000000080808000
:10384800808000808000000000808080808000FFF1
:10385800FFFF000000008080808000008080000062
:1038680080FFFF80800080800080808080008080D2
:103878000000000000808000008C8E84000080F82A
:10388800F8F88000000000000000000000000000C0
:10389800F0F0F0F0F0F0F0F0F0F0F0F0E0E0C080E0
:1038A80000E0FCFEFFFFFF7FFFFFFFFFFF000000BF
:1038B8000000000000000000000000FEFFC701013A
:1038C800010183FFFF00007CFEC70101010183FFA6
:1038D800FFFF0038FEC78301010183C7FFFF000017
:1038E80001FFFF010100FFFF0701010100007FFF49
:1038F80080000000FFFF7F0000FFFFFF000001FFC6
:10390800FFFF0100000000000000000000000000B0
:10391800030F3F7F7FFFFFFFFFFFFFFFE7C7C78F53
:103928008F9FBFFFFFC3C0F0FFFFFFFFFFFCFCFC42
:10393800FCFCFCFCFCF8F8F0F0E0C0000103030319
:103948000303010303000000000103030303010153
:103958000301000000010303030301010303000046
:103968000003030000000303000000000000000142
:103978000303030303010000000103010000000327
:10398800030100000000000000000000000000002B
:1039980000000080C0E0F0F9FFFFFFFFFF3F1F0FAE
:1039A80087C7F7FFFF1F1F3DFCF8F8F8F87C7DFF7D
:1039B800FFFFFFFFFFFFFF7F3F0F070030300000D2
:1039C80000000000000000000000000000000000EF
:1039D80000000000FEFEFC000000000000000000E7
:1039E80000000000000000000000000000E0C0002F
:1039F800000000000000000000003030000000005F
:103A080000000000000000000000000000000000AE
:103A180000C0FEFFFFFFFFFFFFFFFFFF7F7F3F1F8D
:103A28000F071F7FFFFFF8F8FFFFFFFFFFFEF8E01B
:103A3800000000010000000000000000FEFE000081
:103A480000FCFEFC0C06060EFCF80000F0F81C0E4C
:103A58000606060CFFFFFF0000FEFE00000000FC4B
:103A6800FEFC00183C7E66E6CE84000006FFFF06DA
:103A780006FCFEFC0C0606060000FEFE0000C0F870
:103A8800FC4E4646464E7C7840183C76E6CECC80C6
:103A9800000000000000000000000000000000001E
:103AA8000000000001070F1F1F3F3F3F3F1F0F038C
:103AB8000000000000000000000000000F0F0000E0
:103AC800000F0F0F000000000F0F000003070E0C7F
:103AD80018180C060F0F0F0000010F0E0C180C0F12
:103AE800070100040E0C180C0F070000000F0F0050
:103AF800000F0F0F0000000000000F0F000000076C
:103B0800070C0C181C0C060600040E0C180C0F07EA
:103B1800000000000000000000000000000000009D
:103B2800000000000000000000000000000000008D
:103B3800000000000000000000000000000000007D
:103B4800000000000000000000000000000000006D
:103B5800000000000000000000000000000000005D
:103B6800000000000000000000000000000000004D
:103B7800000000000000000000000000000000003D
:103B8800000000000000000000000000000000002D
:103B98000000000000000000008095430000204164
:103BA8000000B5430000A0410000D4430000F041EC
:103BB8000000F6430000204200C00A4400004842CA
:103BC80000801B440000704200002C4400008C421E
:103BD80000803A440000A04200C049440000AA42C4
:103BE800004058440000B442000080440000C6422F
:103BF800000103070F1F3F7F0080C0E0F0F8FCFEC4
:103C0800000000002F118B12C7107611F810D61083
:103C1800EA1000000000B20C820CE20C5C0C7A0C7A
:103C28006B0C5D0C00000000AC088B12E20CE10C80
:103C3800E2057F0B780B500B6C0B600B800B4F0B66
:103C4800810680062C038604760A580AE10982094F
:103C580020000D0A006E616E00696E66006F766660
:023C680000005A
:00000001FF
